{
  "_format": "hh-sol-artifact-1",
  "contractName": "SpacePepe",
  "sourceName": "contracts/SpacePepe.sol",
  "abi": [
    {
      "inputs": [
        {
          "internalType": "string",
          "name": "baseURI_",
          "type": "string"
        }
      ],
      "stateMutability": "nonpayable",
      "type": "constructor"
    },
    {
      "anonymous": false,
      "inputs": [
        {
          "indexed": true,
          "internalType": "address",
          "name": "owner",
          "type": "address"
        },
        {
          "indexed": true,
          "internalType": "address",
          "name": "approved",
          "type": "address"
        },
        {
          "indexed": true,
          "internalType": "uint256",
          "name": "tokenId",
          "type": "uint256"
        }
      ],
      "name": "Approval",
      "type": "event"
    },
    {
      "anonymous": false,
      "inputs": [
        {
          "indexed": true,
          "internalType": "address",
          "name": "owner",
          "type": "address"
        },
        {
          "indexed": true,
          "internalType": "address",
          "name": "operator",
          "type": "address"
        },
        {
          "indexed": false,
          "internalType": "bool",
          "name": "approved",
          "type": "bool"
        }
      ],
      "name": "ApprovalForAll",
      "type": "event"
    },
    {
      "anonymous": false,
      "inputs": [
        {
          "indexed": false,
          "internalType": "address",
          "name": "userAddress",
          "type": "address"
        },
        {
          "indexed": false,
          "internalType": "address payable",
          "name": "relayerAddress",
          "type": "address"
        },
        {
          "indexed": false,
          "internalType": "bytes",
          "name": "functionSignature",
          "type": "bytes"
        }
      ],
      "name": "MetaTransactionExecuted",
      "type": "event"
    },
    {
      "anonymous": false,
      "inputs": [
        {
          "indexed": true,
          "internalType": "address",
          "name": "previousOwner",
          "type": "address"
        },
        {
          "indexed": true,
          "internalType": "address",
          "name": "newOwner",
          "type": "address"
        }
      ],
      "name": "OwnershipTransferred",
      "type": "event"
    },
    {
      "anonymous": false,
      "inputs": [
        {
          "indexed": true,
          "internalType": "address",
          "name": "from",
          "type": "address"
        },
        {
          "indexed": true,
          "internalType": "address",
          "name": "to",
          "type": "address"
        },
        {
          "indexed": true,
          "internalType": "uint256",
          "name": "tokenId",
          "type": "uint256"
        }
      ],
      "name": "Transfer",
      "type": "event"
    },
    {
      "inputs": [],
      "name": "ERC712_VERSION",
      "outputs": [
        {
          "internalType": "string",
          "name": "",
          "type": "string"
        }
      ],
      "stateMutability": "view",
      "type": "function"
    },
    {
      "inputs": [],
      "name": "MAX_SUPPLY",
      "outputs": [
        {
          "internalType": "uint256",
          "name": "",
          "type": "uint256"
        }
      ],
      "stateMutability": "view",
      "type": "function"
    },
    {
      "inputs": [
        {
          "internalType": "address",
          "name": "to",
          "type": "address"
        },
        {
          "internalType": "uint256",
          "name": "tokenId",
          "type": "uint256"
        }
      ],
      "name": "approve",
      "outputs": [],
      "stateMutability": "nonpayable",
      "type": "function"
    },
    {
      "inputs": [
        {
          "internalType": "address",
          "name": "owner",
          "type": "address"
        }
      ],
      "name": "balanceOf",
      "outputs": [
        {
          "internalType": "uint256",
          "name": "",
          "type": "uint256"
        }
      ],
      "stateMutability": "view",
      "type": "function"
    },
    {
      "inputs": [],
      "name": "basePrice",
      "outputs": [
        {
          "internalType": "uint256",
          "name": "",
          "type": "uint256"
        }
      ],
      "stateMutability": "view",
      "type": "function"
    },
    {
      "inputs": [],
      "name": "baseTokenURI",
      "outputs": [
        {
          "internalType": "string",
          "name": "",
          "type": "string"
        }
      ],
      "stateMutability": "view",
      "type": "function"
    },
    {
      "inputs": [],
      "name": "currentTokenId",
      "outputs": [
        {
          "internalType": "uint256",
          "name": "",
          "type": "uint256"
        }
      ],
      "stateMutability": "view",
      "type": "function"
    },
    {
      "inputs": [
        {
          "internalType": "address",
          "name": "userAddress",
          "type": "address"
        },
        {
          "internalType": "bytes",
          "name": "functionSignature",
          "type": "bytes"
        },
        {
          "internalType": "bytes32",
          "name": "sigR",
          "type": "bytes32"
        },
        {
          "internalType": "bytes32",
          "name": "sigS",
          "type": "bytes32"
        },
        {
          "internalType": "uint8",
          "name": "sigV",
          "type": "uint8"
        }
      ],
      "name": "executeMetaTransaction",
      "outputs": [
        {
          "internalType": "bytes",
          "name": "",
          "type": "bytes"
        }
      ],
      "stateMutability": "payable",
      "type": "function"
    },
    {
      "inputs": [
        {
          "internalType": "uint256",
          "name": "tokenId",
          "type": "uint256"
        }
      ],
      "name": "getApproved",
      "outputs": [
        {
          "internalType": "address",
          "name": "",
          "type": "address"
        }
      ],
      "stateMutability": "view",
      "type": "function"
    },
    {
      "inputs": [],
      "name": "getChainId",
      "outputs": [
        {
          "internalType": "uint256",
          "name": "",
          "type": "uint256"
        }
      ],
      "stateMutability": "view",
      "type": "function"
    },
    {
      "inputs": [],
      "name": "getDomainSeperator",
      "outputs": [
        {
          "internalType": "bytes32",
          "name": "",
          "type": "bytes32"
        }
      ],
      "stateMutability": "view",
      "type": "function"
    },
    {
      "inputs": [
        {
          "internalType": "address",
          "name": "user",
          "type": "address"
        }
      ],
      "name": "getNonce",
      "outputs": [
        {
          "internalType": "uint256",
          "name": "nonce",
          "type": "uint256"
        }
      ],
      "stateMutability": "view",
      "type": "function"
    },
    {
      "inputs": [],
      "name": "incrementPrice",
      "outputs": [
        {
          "internalType": "uint256",
          "name": "",
          "type": "uint256"
        }
      ],
      "stateMutability": "view",
      "type": "function"
    },
    {
      "inputs": [
        {
          "internalType": "address",
          "name": "_owner",
          "type": "address"
        },
        {
          "internalType": "address",
          "name": "operator",
          "type": "address"
        }
      ],
      "name": "isApprovedForAll",
      "outputs": [
        {
          "internalType": "bool",
          "name": "",
          "type": "bool"
        }
      ],
      "stateMutability": "view",
      "type": "function"
    },
    {
      "inputs": [],
      "name": "mint",
      "outputs": [],
      "stateMutability": "payable",
      "type": "function"
    },
    {
      "inputs": [
        {
          "internalType": "address",
          "name": "_to",
          "type": "address"
        }
      ],
      "name": "mintTo",
      "outputs": [],
      "stateMutability": "nonpayable",
      "type": "function"
    },
    {
      "inputs": [
        {
          "internalType": "address",
          "name": "",
          "type": "address"
        }
      ],
      "name": "minted",
      "outputs": [
        {
          "internalType": "bool",
          "name": "",
          "type": "bool"
        }
      ],
      "stateMutability": "view",
      "type": "function"
    },
    {
      "inputs": [],
      "name": "name",
      "outputs": [
        {
          "internalType": "string",
          "name": "",
          "type": "string"
        }
      ],
      "stateMutability": "view",
      "type": "function"
    },
    {
      "inputs": [],
      "name": "owner",
      "outputs": [
        {
          "internalType": "address",
          "name": "",
          "type": "address"
        }
      ],
      "stateMutability": "view",
      "type": "function"
    },
    {
      "inputs": [
        {
          "internalType": "uint256",
          "name": "tokenId",
          "type": "uint256"
        }
      ],
      "name": "ownerOf",
      "outputs": [
        {
          "internalType": "address",
          "name": "",
          "type": "address"
        }
      ],
      "stateMutability": "view",
      "type": "function"
    },
    {
      "inputs": [],
      "name": "renounceOwnership",
      "outputs": [],
      "stateMutability": "nonpayable",
      "type": "function"
    },
    {
      "inputs": [
        {
          "internalType": "address",
          "name": "from",
          "type": "address"
        },
        {
          "internalType": "address",
          "name": "to",
          "type": "address"
        },
        {
          "internalType": "uint256",
          "name": "tokenId",
          "type": "uint256"
        }
      ],
      "name": "safeTransferFrom",
      "outputs": [],
      "stateMutability": "nonpayable",
      "type": "function"
    },
    {
      "inputs": [
        {
          "internalType": "address",
          "name": "from",
          "type": "address"
        },
        {
          "internalType": "address",
          "name": "to",
          "type": "address"
        },
        {
          "internalType": "uint256",
          "name": "tokenId",
          "type": "uint256"
        },
        {
          "internalType": "bytes",
          "name": "_data",
          "type": "bytes"
        }
      ],
      "name": "safeTransferFrom",
      "outputs": [],
      "stateMutability": "nonpayable",
      "type": "function"
    },
    {
      "inputs": [
        {
          "internalType": "address",
          "name": "operator",
          "type": "address"
        },
        {
          "internalType": "bool",
          "name": "approved",
          "type": "bool"
        }
      ],
      "name": "setApprovalForAll",
      "outputs": [],
      "stateMutability": "nonpayable",
      "type": "function"
    },
    {
      "inputs": [
        {
          "internalType": "string",
          "name": "baseURI_",
          "type": "string"
        }
      ],
      "name": "setBaseURI",
      "outputs": [],
      "stateMutability": "nonpayable",
      "type": "function"
    },
    {
      "inputs": [
        {
          "internalType": "address",
          "name": "_proxyRegistryAddress",
          "type": "address"
        }
      ],
      "name": "setProxyRegistry",
      "outputs": [],
      "stateMutability": "nonpayable",
      "type": "function"
    },
    {
      "inputs": [
        {
          "internalType": "bytes4",
          "name": "interfaceId",
          "type": "bytes4"
        }
      ],
      "name": "supportsInterface",
      "outputs": [
        {
          "internalType": "bool",
          "name": "",
          "type": "bool"
        }
      ],
      "stateMutability": "view",
      "type": "function"
    },
    {
      "inputs": [],
      "name": "symbol",
      "outputs": [
        {
          "internalType": "string",
          "name": "",
          "type": "string"
        }
      ],
      "stateMutability": "view",
      "type": "function"
    },
    {
      "inputs": [
        {
          "internalType": "uint256",
          "name": "index",
          "type": "uint256"
        }
      ],
      "name": "tokenByIndex",
      "outputs": [
        {
          "internalType": "uint256",
          "name": "",
          "type": "uint256"
        }
      ],
      "stateMutability": "view",
      "type": "function"
    },
    {
      "inputs": [
        {
          "internalType": "address",
          "name": "owner",
          "type": "address"
        },
        {
          "internalType": "uint256",
          "name": "index",
          "type": "uint256"
        }
      ],
      "name": "tokenOfOwnerByIndex",
      "outputs": [
        {
          "internalType": "uint256",
          "name": "",
          "type": "uint256"
        }
      ],
      "stateMutability": "view",
      "type": "function"
    },
    {
      "inputs": [
        {
          "internalType": "uint256",
          "name": "tokenId",
          "type": "uint256"
        }
      ],
      "name": "tokenURI",
      "outputs": [
        {
          "internalType": "string",
          "name": "",
          "type": "string"
        }
      ],
      "stateMutability": "view",
      "type": "function"
    },
    {
      "inputs": [],
      "name": "totalSupply",
      "outputs": [
        {
          "internalType": "uint256",
          "name": "",
          "type": "uint256"
        }
      ],
      "stateMutability": "view",
      "type": "function"
    },
    {
      "inputs": [
        {
          "internalType": "address",
          "name": "from",
          "type": "address"
        },
        {
          "internalType": "address",
          "name": "to",
          "type": "address"
        },
        {
          "internalType": "uint256",
          "name": "tokenId",
          "type": "uint256"
        }
      ],
      "name": "transferFrom",
      "outputs": [],
      "stateMutability": "nonpayable",
      "type": "function"
    },
    {
      "inputs": [
        {
          "internalType": "address",
          "name": "newOwner",
          "type": "address"
        }
      ],
      "name": "transferOwnership",
      "outputs": [],
      "stateMutability": "nonpayable",
      "type": "function"
    }
  ],
  "bytecode": "0x60806040526000600a60006101000a81548160ff0219169083151502179055506000600f556064601155681b1ae4d6e2ef500000601255674563918244f400006013553480156200004f57600080fd5b50604051620055b4380380620055b48339818101604052810190620000759190620005af565b6040518060400160405280600c81526020017f53706163655065706546544d00000000000000000000000000000000000000008152506040518060400160405280600581526020017f535046544d000000000000000000000000000000000000000000000000000000815250600082828160009080519060200190620000fd92919062000481565b5080600190805190602001906200011692919062000481565b505050620001396200012d620001ae60201b60201c565b620001ca60201b60201c565b80600e60006101000a81548173ffffffffffffffffffffffffffffffffffffffff021916908373ffffffffffffffffffffffffffffffffffffffff1602179055506200018b836200029060201b60201c565b5050508060109080519060200190620001a692919062000481565b5050620008c4565b6000620001c56200031260201b62001b991760201c565b905090565b6000600d60009054906101000a900473ffffffffffffffffffffffffffffffffffffffff16905081600d60006101000a81548173ffffffffffffffffffffffffffffffffffffffff021916908373ffffffffffffffffffffffffffffffffffffffff1602179055508173ffffffffffffffffffffffffffffffffffffffff168173ffffffffffffffffffffffffffffffffffffffff167f8be0079c531659141344cd1fd0a4f28419497f9722a3daafe3b4186f6b6457e060405160405180910390a35050565b600a60009054906101000a900460ff1615620002e3576040517f08c379a0000000000000000000000000000000000000000000000000000000008152600401620002da90620006a6565b60405180910390fd5b620002f481620003c560201b60201c565b6001600a60006101000a81548160ff02191690831515021790555050565b60003073ffffffffffffffffffffffffffffffffffffffff163373ffffffffffffffffffffffffffffffffffffffff161415620003be57600080368080601f016020809104026020016040519081016040528093929190818152602001838380828437600081840152601f19601f820116905080830192505050505050509050600080369050905073ffffffffffffffffffffffffffffffffffffffff818301511692505050620003c2565b3390505b90565b6040518060800160405280604f815260200162005565604f91398051906020012081805190602001206040518060400160405280600181526020017f310000000000000000000000000000000000000000000000000000000000000081525080519060200120306200043c6200047460201b60201c565b60001b6040516020016200045595949392919062000649565b60405160208183030381529060405280519060200120600b8190555050565b6000804690508091505090565b8280546200048f90620007ac565b90600052602060002090601f016020900481019282620004b35760008555620004ff565b82601f10620004ce57805160ff1916838001178555620004ff565b82800160010185558215620004ff579182015b82811115620004fe578251825591602001919060010190620004e1565b5b5090506200050e919062000512565b5090565b5b808211156200052d57600081600090555060010162000513565b5090565b6000620005486200054284620006f1565b620006c8565b9050828152602081018484840111156200056757620005666200087b565b5b6200057484828562000776565b509392505050565b600082601f83011262000594576200059362000876565b5b8151620005a684826020860162000531565b91505092915050565b600060208284031215620005c857620005c762000885565b5b600082015167ffffffffffffffff811115620005e957620005e862000880565b5b620005f7848285016200057c565b91505092915050565b6200060b8162000738565b82525050565b6200061c816200074c565b82525050565b600062000631600e8362000727565b91506200063e826200089b565b602082019050919050565b600060a08201905062000660600083018862000611565b6200066f602083018762000611565b6200067e604083018662000611565b6200068d606083018562000600565b6200069c608083018462000611565b9695505050505050565b60006020820190508181036000830152620006c18162000622565b9050919050565b6000620006d4620006e7565b9050620006e28282620007e2565b919050565b6000604051905090565b600067ffffffffffffffff8211156200070f576200070e62000847565b5b6200071a826200088a565b9050602081019050919050565b600082825260208201905092915050565b6000620007458262000756565b9050919050565b6000819050919050565b600073ffffffffffffffffffffffffffffffffffffffff82169050919050565b60005b838110156200079657808201518184015260208101905062000779565b83811115620007a6576000848401525b50505050565b60006002820490506001821680620007c557607f821691505b60208210811415620007dc57620007db62000818565b5b50919050565b620007ed826200088a565b810181811067ffffffffffffffff821117156200080f576200080e62000847565b5b80604052505050565b7f4e487b7100000000000000000000000000000000000000000000000000000000600052602260045260246000fd5b7f4e487b7100000000000000000000000000000000000000000000000000000000600052604160045260246000fd5b600080fd5b600080fd5b600080fd5b600080fd5b6000601f19601f8301169050919050565b7f616c726561647920696e69746564000000000000000000000000000000000000600082015250565b614c9180620008d46000396000f3fe6080604052600436106101f85760003560e01c80634f6ccce71161010d578063a22cb465116100a0578063c7876ea41161006f578063c7876ea41461072c578063c87b56dd14610757578063d547cfb714610794578063e985e9c5146107bf578063f2fde38b146107fc576101f8565b8063a22cb46514610686578063adfdeef9146106af578063b5bf6eb6146106d8578063b88d4fde14610703576101f8565b8063715018a6116100dc578063715018a6146105f0578063755edd17146106075780638da5cb5b1461063057806395d89b411461065b576101f8565b80634f6ccce71461051057806355f804b31461054d5780636352211e1461057657806370a08231146105b3576101f8565b806318160ddd116101905780632d0335ab1161015f5780632d0335ab146104175780632f745c591461045457806332cb6b0c146104915780633408e470146104bc57806342842e0e146104e7576101f8565b806318160ddd1461035b5780631e7269c51461038657806320379ee5146103c357806323b872dd146103ee576101f8565b8063095ea7b3116101cc578063095ea7b3146102cd5780630c53c51c146102f65780630f7e5970146103265780631249c58b14610351576101f8565b80629a9b7b146101fd57806301ffc9a71461022857806306fdde0314610265578063081812fc14610290575b600080fd5b34801561020957600080fd5b50610212610825565b60405161021f9190613fc9565b60405180910390f35b34801561023457600080fd5b5061024f600480360381019061024a91906134c2565b61082b565b60405161025c9190613bc5565b60405180910390f35b34801561027157600080fd5b5061027a6108a5565b6040516102879190613ca7565b60405180910390f35b34801561029c57600080fd5b506102b760048036038101906102b29190613592565b610937565b6040516102c49190613b20565b60405180910390f35b3480156102d957600080fd5b506102f460048036038101906102ef9190613482565b6109bc565b005b610310600480360381019061030b91906133eb565b610ad4565b60405161031d9190613c85565b60405180910390f35b34801561033257600080fd5b5061033b610d46565b6040516103489190613ca7565b60405180910390f35b610359610d7f565b005b34801561036757600080fd5b50610370610ff9565b60405161037d9190613fc9565b60405180910390f35b34801561039257600080fd5b506103ad60048036038101906103a89190613268565b611006565b6040516103ba9190613bc5565b60405180910390f35b3480156103cf57600080fd5b506103d8611026565b6040516103e59190613be0565b60405180910390f35b3480156103fa57600080fd5b50610415600480360381019061041091906132d5565b611030565b005b34801561042357600080fd5b5061043e60048036038101906104399190613268565b611090565b60405161044b9190613fc9565b60405180910390f35b34801561046057600080fd5b5061047b60048036038101906104769190613482565b6110d9565b6040516104889190613fc9565b60405180910390f35b34801561049d57600080fd5b506104a661117e565b6040516104b39190613fc9565b60405180910390f35b3480156104c857600080fd5b506104d1611184565b6040516104de9190613fc9565b60405180910390f35b3480156104f357600080fd5b5061050e600480360381019061050991906132d5565b611191565b005b34801561051c57600080fd5b5061053760048036038101906105329190613592565b6111b1565b6040516105449190613fc9565b60405180910390f35b34801561055957600080fd5b50610574600480360381019061056f9190613549565b611222565b005b34801561058257600080fd5b5061059d60048036038101906105989190613592565b6112b8565b6040516105aa9190613b20565b60405180910390f35b3480156105bf57600080fd5b506105da60048036038101906105d59190613268565b61136a565b6040516105e79190613fc9565b60405180910390f35b3480156105fc57600080fd5b50610605611422565b005b34801561061357600080fd5b5061062e60048036038101906106299190613268565b6114aa565b005b34801561063c57600080fd5b50610645611548565b6040516106529190613b20565b60405180910390f35b34801561066757600080fd5b50610670611572565b60405161067d9190613ca7565b60405180910390f35b34801561069257600080fd5b506106ad60048036038101906106a891906133ab565b611604565b005b3480156106bb57600080fd5b506106d660048036038101906106d19190613268565b611785565b005b3480156106e457600080fd5b506106ed611845565b6040516106fa9190613fc9565b60405180910390f35b34801561070f57600080fd5b5061072a60048036038101906107259190613328565b61184b565b005b34801561073857600080fd5b506107416118ad565b60405161074e9190613fc9565b60405180910390f35b34801561076357600080fd5b5061077e60048036038101906107799190613592565b6118b3565b60405161078b9190613ca7565b60405180910390f35b3480156107a057600080fd5b506107a9611935565b6040516107b69190613ca7565b60405180910390f35b3480156107cb57600080fd5b506107e660048036038101906107e19190613295565b611944565b6040516107f39190613bc5565b60405180910390f35b34801561080857600080fd5b50610823600480360381019061081e9190613268565b611aa1565b005b600f5481565b60007f780e9d63000000000000000000000000000000000000000000000000000000007bffffffffffffffffffffffffffffffffffffffffffffffffffffffff1916827bffffffffffffffffffffffffffffffffffffffffffffffffffffffff1916148061089e575061089d82611c4a565b5b9050919050565b6060600080546108b4906142bf565b80601f01602080910402602001604051908101604052809291908181526020018280546108e0906142bf565b801561092d5780601f106109025761010080835404028352916020019161092d565b820191906000526020600020905b81548152906001019060200180831161091057829003601f168201915b5050505050905090565b600061094282611d2c565b610981576040517f08c379a000000000000000000000000000000000000000000000000000000000815260040161097890613e89565b60405180910390fd5b6004600083815260200190815260200160002060009054906101000a900473ffffffffffffffffffffffffffffffffffffffff169050919050565b60006109c7826112b8565b90508073ffffffffffffffffffffffffffffffffffffffff168373ffffffffffffffffffffffffffffffffffffffff161415610a38576040517f08c379a0000000000000000000000000000000000000000000000000000000008152600401610a2f90613f29565b60405180910390fd5b8073ffffffffffffffffffffffffffffffffffffffff16610a57611d98565b73ffffffffffffffffffffffffffffffffffffffff161480610a865750610a8581610a80611d98565b611944565b5b610ac5576040517f08c379a0000000000000000000000000000000000000000000000000000000008152600401610abc90613e09565b60405180910390fd5b610acf8383611da7565b505050565b606060006040518060600160405280600c60008a73ffffffffffffffffffffffffffffffffffffffff1673ffffffffffffffffffffffffffffffffffffffff1681526020019081526020016000205481526020018873ffffffffffffffffffffffffffffffffffffffff168152602001878152509050610b578782878787611e60565b610b96576040517f08c379a0000000000000000000000000000000000000000000000000000000008152600401610b8d90613ee9565b60405180910390fd5b610be96001600c60008a73ffffffffffffffffffffffffffffffffffffffff1673ffffffffffffffffffffffffffffffffffffffff16815260200190815260200160002054611f6990919063ffffffff16565b600c60008973ffffffffffffffffffffffffffffffffffffffff1673ffffffffffffffffffffffffffffffffffffffff168152602001908152602001600020819055507f5845892132946850460bff5a0083f71031bc5bf9aadcd40f1de79423eac9b10b873388604051610c5f93929190613b3b565b60405180910390a16000803073ffffffffffffffffffffffffffffffffffffffff16888a604051602001610c94929190613a9d565b604051602081830303815290604052604051610cb09190613a86565b6000604051808303816000865af19150503d8060008114610ced576040519150601f19603f3d011682016040523d82523d6000602084013e610cf2565b606091505b509150915081610d37576040517f08c379a0000000000000000000000000000000000000000000000000000000008152600401610d2e90613d49565b60405180910390fd5b80935050505095945050505050565b6040518060400160405280600181526020017f310000000000000000000000000000000000000000000000000000000000000081525081565b6000610d89611f7f565b90506000600f54601354610d9d9190614140565b601254610daa91906140b9565b905080341015610def576040517f08c379a0000000000000000000000000000000000000000000000000000000008152600401610de690613f89565b60405180910390fd5b6011548210610e33576040517f08c379a0000000000000000000000000000000000000000000000000000000008152600401610e2a90613f69565b60405180910390fd5b6000151560146000610e43611d98565b73ffffffffffffffffffffffffffffffffffffffff1673ffffffffffffffffffffffffffffffffffffffff16815260200190815260200160002060009054906101000a900460ff16151514610ecd576040517f08c379a0000000000000000000000000000000000000000000000000000000008152600401610ec490613cc9565b60405180910390fd5b600160146000610edb611d98565b73ffffffffffffffffffffffffffffffffffffffff1673ffffffffffffffffffffffffffffffffffffffff16815260200190815260200160002060006101000a81548160ff021916908315150217905550610f3d610f37611d98565b83611f9c565b610f4561216a565b80341115610fa757610f55611d98565b73ffffffffffffffffffffffffffffffffffffffff166108fc8234610f7a919061419a565b9081150290604051600060405180830381858888f19350505050158015610fa5573d6000803e3d6000fd5b505b610faf611548565b73ffffffffffffffffffffffffffffffffffffffff166108fc829081150290604051600060405180830381858888f19350505050158015610ff4573d6000803e3d6000fd5b505050565b6000600880549050905090565b60146020528060005260406000206000915054906101000a900460ff1681565b6000600b54905090565b61104161103b611d98565b82612184565b611080576040517f08c379a000000000000000000000000000000000000000000000000000000000815260040161107790613f49565b60405180910390fd5b61108b838383612262565b505050565b6000600c60008373ffffffffffffffffffffffffffffffffffffffff1673ffffffffffffffffffffffffffffffffffffffff168152602001908152602001600020549050919050565b60006110e48361136a565b8210611125576040517f08c379a000000000000000000000000000000000000000000000000000000000815260040161111c90613ce9565b60405180910390fd5b600660008473ffffffffffffffffffffffffffffffffffffffff1673ffffffffffffffffffffffffffffffffffffffff168152602001908152602001600020600083815260200190815260200160002054905092915050565b60115481565b6000804690508091505090565b6111ac8383836040518060200160405280600081525061184b565b505050565b60006111bb610ff9565b82106111fc576040517f08c379a00000000000000000000000000000000000000000000000000000000081526004016111f390613fa9565b60405180910390fd5b600882815481106112105761120f614486565b5b90600052602060002001549050919050565b61122a611d98565b73ffffffffffffffffffffffffffffffffffffffff16611248611548565b73ffffffffffffffffffffffffffffffffffffffff161461129e576040517f08c379a000000000000000000000000000000000000000000000000000000000815260040161129590613ea9565b60405180910390fd5b80601090805190602001906112b492919061303d565b5050565b6000806002600084815260200190815260200160002060009054906101000a900473ffffffffffffffffffffffffffffffffffffffff169050600073ffffffffffffffffffffffffffffffffffffffff168173ffffffffffffffffffffffffffffffffffffffff161415611361576040517f08c379a000000000000000000000000000000000000000000000000000000000815260040161135890613e49565b60405180910390fd5b80915050919050565b60008073ffffffffffffffffffffffffffffffffffffffff168273ffffffffffffffffffffffffffffffffffffffff1614156113db576040517f08c379a00000000000000000000000000000000000000000000000000000000081526004016113d290613e29565b60405180910390fd5b600360008373ffffffffffffffffffffffffffffffffffffffff1673ffffffffffffffffffffffffffffffffffffffff168152602001908152602001600020549050919050565b61142a611d98565b73ffffffffffffffffffffffffffffffffffffffff16611448611548565b73ffffffffffffffffffffffffffffffffffffffff161461149e576040517f08c379a000000000000000000000000000000000000000000000000000000000815260040161149590613ea9565b60405180910390fd5b6114a860006124be565b565b6114b2611d98565b73ffffffffffffffffffffffffffffffffffffffff166114d0611548565b73ffffffffffffffffffffffffffffffffffffffff1614611526576040517f08c379a000000000000000000000000000000000000000000000000000000000815260040161151d90613ea9565b60405180910390fd5b6000611530611f7f565b905061153c8282611f9c565b61154461216a565b5050565b6000600d60009054906101000a900473ffffffffffffffffffffffffffffffffffffffff16905090565b606060018054611581906142bf565b80601f01602080910402602001604051908101604052809291908181526020018280546115ad906142bf565b80156115fa5780601f106115cf576101008083540402835291602001916115fa565b820191906000526020600020905b8154815290600101906020018083116115dd57829003601f168201915b5050505050905090565b61160c611d98565b73ffffffffffffffffffffffffffffffffffffffff168273ffffffffffffffffffffffffffffffffffffffff16141561167a576040517f08c379a000000000000000000000000000000000000000000000000000000000815260040161167190613da9565b60405180910390fd5b8060056000611687611d98565b73ffffffffffffffffffffffffffffffffffffffff1673ffffffffffffffffffffffffffffffffffffffff16815260200190815260200160002060008473ffffffffffffffffffffffffffffffffffffffff1673ffffffffffffffffffffffffffffffffffffffff16815260200190815260200160002060006101000a81548160ff0219169083151502179055508173ffffffffffffffffffffffffffffffffffffffff16611734611d98565b73ffffffffffffffffffffffffffffffffffffffff167f17307eab39ab6107e8899845ad3d59bd9653f200f220920489ca2b5937696c31836040516117799190613bc5565b60405180910390a35050565b61178d611d98565b73ffffffffffffffffffffffffffffffffffffffff166117ab611548565b73ffffffffffffffffffffffffffffffffffffffff1614611801576040517f08c379a00000000000000000000000000000000000000000000000000000000081526004016117f890613ea9565b60405180910390fd5b80600e60006101000a81548173ffffffffffffffffffffffffffffffffffffffff021916908373ffffffffffffffffffffffffffffffffffffffff16021790555050565b60135481565b61185c611856611d98565b83612184565b61189b576040517f08c379a000000000000000000000000000000000000000000000000000000000815260040161189290613f49565b60405180910390fd5b6118a784848484612584565b50505050565b60125481565b60606118be82611d2c565b6118fd576040517f08c379a00000000000000000000000000000000000000000000000000000000081526004016118f490613f09565b60405180910390fd5b611905611935565b61190e836125e0565b60405160200161191f929190613ac5565b6040516020818303038152906040529050919050565b606061193f612741565b905090565b600080600e60009054906101000a900473ffffffffffffffffffffffffffffffffffffffff169050600073ffffffffffffffffffffffffffffffffffffffff16600e60009054906101000a900473ffffffffffffffffffffffffffffffffffffffff1673ffffffffffffffffffffffffffffffffffffffff1614158015611a7e57508273ffffffffffffffffffffffffffffffffffffffff168173ffffffffffffffffffffffffffffffffffffffff1663c4552791866040518263ffffffff1660e01b8152600401611a169190613b20565b60206040518083038186803b158015611a2e57600080fd5b505afa158015611a42573d6000803e3d6000fd5b505050506040513d601f19601f82011682018060405250810190611a66919061351c565b73ffffffffffffffffffffffffffffffffffffffff16145b15611a8d576001915050611a9b565b611a9784846127d3565b9150505b92915050565b611aa9611d98565b73ffffffffffffffffffffffffffffffffffffffff16611ac7611548565b73ffffffffffffffffffffffffffffffffffffffff1614611b1d576040517f08c379a0000000000000000000000000000000000000000000000000000000008152600401611b1490613ea9565b60405180910390fd5b600073ffffffffffffffffffffffffffffffffffffffff168173ffffffffffffffffffffffffffffffffffffffff161415611b8d576040517f08c379a0000000000000000000000000000000000000000000000000000000008152600401611b8490613d29565b60405180910390fd5b611b96816124be565b50565b60003073ffffffffffffffffffffffffffffffffffffffff163373ffffffffffffffffffffffffffffffffffffffff161415611c4357600080368080601f016020809104026020016040519081016040528093929190818152602001838380828437600081840152601f19601f820116905080830192505050505050509050600080369050905073ffffffffffffffffffffffffffffffffffffffff818301511692505050611c47565b3390505b90565b60007f80ac58cd000000000000000000000000000000000000000000000000000000007bffffffffffffffffffffffffffffffffffffffffffffffffffffffff1916827bffffffffffffffffffffffffffffffffffffffffffffffffffffffff19161480611d1557507f5b5e139f000000000000000000000000000000000000000000000000000000007bffffffffffffffffffffffffffffffffffffffffffffffffffffffff1916827bffffffffffffffffffffffffffffffffffffffffffffffffffffffff1916145b80611d255750611d24826128d5565b5b9050919050565b60008073ffffffffffffffffffffffffffffffffffffffff166002600084815260200190815260200160002060009054906101000a900473ffffffffffffffffffffffffffffffffffffffff1673ffffffffffffffffffffffffffffffffffffffff1614159050919050565b6000611da2611b99565b905090565b816004600083815260200190815260200160002060006101000a81548173ffffffffffffffffffffffffffffffffffffffff021916908373ffffffffffffffffffffffffffffffffffffffff160217905550808273ffffffffffffffffffffffffffffffffffffffff16611e1a836112b8565b73ffffffffffffffffffffffffffffffffffffffff167f8c5be1e5ebec7d5bd14f71427d1e84f3dd0314c0f7b2291e5b200ac8c7c3b92560405160405180910390a45050565b60008073ffffffffffffffffffffffffffffffffffffffff168673ffffffffffffffffffffffffffffffffffffffff161415611ed1576040517f08c379a0000000000000000000000000000000000000000000000000000000008152600401611ec890613de9565b60405180910390fd5b6001611ee4611edf8761293f565b6129a7565b83868660405160008152602001604052604051611f049493929190613c40565b6020604051602081039080840390855afa158015611f26573d6000803e3d6000fd5b5050506020604051035173ffffffffffffffffffffffffffffffffffffffff168673ffffffffffffffffffffffffffffffffffffffff1614905095945050505050565b60008183611f7791906140b9565b905092915050565b6000611f976001600f54611f6990919063ffffffff16565b905090565b600073ffffffffffffffffffffffffffffffffffffffff168273ffffffffffffffffffffffffffffffffffffffff16141561200c576040517f08c379a000000000000000000000000000000000000000000000000000000000815260040161200390613e69565b60405180910390fd5b61201581611d2c565b15612055576040517f08c379a000000000000000000000000000000000000000000000000000000000815260040161204c90613d69565b60405180910390fd5b612061600083836129e0565b6001600360008473ffffffffffffffffffffffffffffffffffffffff1673ffffffffffffffffffffffffffffffffffffffff16815260200190815260200160002060008282546120b191906140b9565b92505081905550816002600083815260200190815260200160002060006101000a81548173ffffffffffffffffffffffffffffffffffffffff021916908373ffffffffffffffffffffffffffffffffffffffff160217905550808273ffffffffffffffffffffffffffffffffffffffff16600073ffffffffffffffffffffffffffffffffffffffff167fddf252ad1be2c89b69c2b068fc378daa952ba7f163c4a11628f55a4df523b3ef60405160405180910390a45050565b600f600081548092919061217d90614322565b9190505550565b600061218f82611d2c565b6121ce576040517f08c379a00000000000000000000000000000000000000000000000000000000081526004016121c590613dc9565b60405180910390fd5b60006121d9836112b8565b90508073ffffffffffffffffffffffffffffffffffffffff168473ffffffffffffffffffffffffffffffffffffffff16148061224857508373ffffffffffffffffffffffffffffffffffffffff1661223084610937565b73ffffffffffffffffffffffffffffffffffffffff16145b8061225957506122588185611944565b5b91505092915050565b8273ffffffffffffffffffffffffffffffffffffffff16612282826112b8565b73ffffffffffffffffffffffffffffffffffffffff16146122d8576040517f08c379a00000000000000000000000000000000000000000000000000000000081526004016122cf90613ec9565b60405180910390fd5b600073ffffffffffffffffffffffffffffffffffffffff168273ffffffffffffffffffffffffffffffffffffffff161415612348576040517f08c379a000000000000000000000000000000000000000000000000000000000815260040161233f90613d89565b60405180910390fd5b6123538383836129e0565b61235e600082611da7565b6001600360008573ffffffffffffffffffffffffffffffffffffffff1673ffffffffffffffffffffffffffffffffffffffff16815260200190815260200160002060008282546123ae919061419a565b925050819055506001600360008473ffffffffffffffffffffffffffffffffffffffff1673ffffffffffffffffffffffffffffffffffffffff168152602001908152602001600020600082825461240591906140b9565b92505081905550816002600083815260200190815260200160002060006101000a81548173ffffffffffffffffffffffffffffffffffffffff021916908373ffffffffffffffffffffffffffffffffffffffff160217905550808273ffffffffffffffffffffffffffffffffffffffff168473ffffffffffffffffffffffffffffffffffffffff167fddf252ad1be2c89b69c2b068fc378daa952ba7f163c4a11628f55a4df523b3ef60405160405180910390a4505050565b6000600d60009054906101000a900473ffffffffffffffffffffffffffffffffffffffff16905081600d60006101000a81548173ffffffffffffffffffffffffffffffffffffffff021916908373ffffffffffffffffffffffffffffffffffffffff1602179055508173ffffffffffffffffffffffffffffffffffffffff168173ffffffffffffffffffffffffffffffffffffffff167f8be0079c531659141344cd1fd0a4f28419497f9722a3daafe3b4186f6b6457e060405160405180910390a35050565b61258f848484612262565b61259b84848484612af4565b6125da576040517f08c379a00000000000000000000000000000000000000000000000000000000081526004016125d190613d09565b60405180910390fd5b50505050565b60606000821415612628576040518060400160405280600181526020017f3000000000000000000000000000000000000000000000000000000000000000815250905061273c565b600082905060005b6000821461265a57808061264390614322565b915050600a82612653919061410f565b9150612630565b60008167ffffffffffffffff811115612676576126756144b5565b5b6040519080825280601f01601f1916602001820160405280156126a85781602001600182028036833780820191505090505b5090505b60008514612735576001826126c1919061419a565b9150600a856126d09190614399565b60306126dc91906140b9565b60f81b8183815181106126f2576126f1614486565b5b60200101907effffffffffffffffffffffffffffffffffffffffffffffffffffffffffffff1916908160001a905350600a8561272e919061410f565b94506126ac565b8093505050505b919050565b606060108054612750906142bf565b80601f016020809104026020016040519081016040528092919081815260200182805461277c906142bf565b80156127c95780601f1061279e576101008083540402835291602001916127c9565b820191906000526020600020905b8154815290600101906020018083116127ac57829003601f168201915b5050505050905090565b600080600e60009054906101000a900473ffffffffffffffffffffffffffffffffffffffff1690508273ffffffffffffffffffffffffffffffffffffffff168173ffffffffffffffffffffffffffffffffffffffff1663c4552791866040518263ffffffff1660e01b815260040161284b9190613b20565b60206040518083038186803b15801561286357600080fd5b505afa158015612877573d6000803e3d6000fd5b505050506040513d601f19601f8201168201806040525081019061289b919061351c565b73ffffffffffffffffffffffffffffffffffffffff1614156128c15760019150506128cf565b6128cb8484612c8b565b9150505b92915050565b60007f01ffc9a7000000000000000000000000000000000000000000000000000000007bffffffffffffffffffffffffffffffffffffffffffffffffffffffff1916827bffffffffffffffffffffffffffffffffffffffffffffffffffffffff1916149050919050565b6000604051806080016040528060438152602001614c1960439139805190602001208260000151836020015184604001518051906020012060405160200161298a9493929190613bfb565b604051602081830303815290604052805190602001209050919050565b60006129b1611026565b826040516020016129c3929190613ae9565b604051602081830303815290604052805190602001209050919050565b6129eb838383612d1f565b600073ffffffffffffffffffffffffffffffffffffffff168373ffffffffffffffffffffffffffffffffffffffff161415612a2e57612a2981612d24565b612a6d565b8173ffffffffffffffffffffffffffffffffffffffff168373ffffffffffffffffffffffffffffffffffffffff1614612a6c57612a6b8382612d6d565b5b5b600073ffffffffffffffffffffffffffffffffffffffff168273ffffffffffffffffffffffffffffffffffffffff161415612ab057612aab81612eda565b612aef565b8273ffffffffffffffffffffffffffffffffffffffff168273ffffffffffffffffffffffffffffffffffffffff1614612aee57612aed8282612fab565b5b5b505050565b6000612b158473ffffffffffffffffffffffffffffffffffffffff1661302a565b15612c7e578373ffffffffffffffffffffffffffffffffffffffff1663150b7a02612b3e611d98565b8786866040518563ffffffff1660e01b8152600401612b609493929190613b79565b602060405180830381600087803b158015612b7a57600080fd5b505af1925050508015612bab57506040513d601f19601f82011682018060405250810190612ba891906134ef565b60015b612c2e573d8060008114612bdb576040519150601f19603f3d011682016040523d82523d6000602084013e612be0565b606091505b50600081511415612c26576040517f08c379a0000000000000000000000000000000000000000000000000000000008152600401612c1d90613d09565b60405180910390fd5b805181602001fd5b63150b7a0260e01b7bffffffffffffffffffffffffffffffffffffffffffffffffffffffff1916817bffffffffffffffffffffffffffffffffffffffffffffffffffffffff191614915050612c83565b600190505b949350505050565b6000600560008473ffffffffffffffffffffffffffffffffffffffff1673ffffffffffffffffffffffffffffffffffffffff16815260200190815260200160002060008373ffffffffffffffffffffffffffffffffffffffff1673ffffffffffffffffffffffffffffffffffffffff16815260200190815260200160002060009054906101000a900460ff16905092915050565b505050565b6008805490506009600083815260200190815260200160002081905550600881908060018154018082558091505060019003906000526020600020016000909190919091505550565b60006001612d7a8461136a565b612d84919061419a565b9050600060076000848152602001908152602001600020549050818114612e69576000600660008673ffffffffffffffffffffffffffffffffffffffff1673ffffffffffffffffffffffffffffffffffffffff168152602001908152602001600020600084815260200190815260200160002054905080600660008773ffffffffffffffffffffffffffffffffffffffff1673ffffffffffffffffffffffffffffffffffffffff168152602001908152602001600020600084815260200190815260200160002081905550816007600083815260200190815260200160002081905550505b6007600084815260200190815260200160002060009055600660008573ffffffffffffffffffffffffffffffffffffffff1673ffffffffffffffffffffffffffffffffffffffff16815260200190815260200160002060008381526020019081526020016000206000905550505050565b60006001600880549050612eee919061419a565b9050600060096000848152602001908152602001600020549050600060088381548110612f1e57612f1d614486565b5b906000526020600020015490508060088381548110612f4057612f3f614486565b5b906000526020600020018190555081600960008381526020019081526020016000208190555060096000858152602001908152602001600020600090556008805480612f8f57612f8e614457565b5b6001900381819060005260206000200160009055905550505050565b6000612fb68361136a565b905081600660008573ffffffffffffffffffffffffffffffffffffffff1673ffffffffffffffffffffffffffffffffffffffff168152602001908152602001600020600083815260200190815260200160002081905550806007600084815260200190815260200160002081905550505050565b600080823b905060008111915050919050565b828054613049906142bf565b90600052602060002090601f01602090048101928261306b57600085556130b2565b82601f1061308457805160ff19168380011785556130b2565b828001600101855582156130b2579182015b828111156130b1578251825591602001919060010190613096565b5b5090506130bf91906130c3565b5090565b5b808211156130dc5760008160009055506001016130c4565b5090565b60006130f36130ee84614009565b613fe4565b90508281526020810184848401111561310f5761310e6144e9565b5b61311a84828561427d565b509392505050565b60006131356131308461403a565b613fe4565b905082815260208101848484011115613151576131506144e9565b5b61315c84828561427d565b509392505050565b60008135905061317381614b77565b92915050565b60008135905061318881614b8e565b92915050565b60008135905061319d81614ba5565b92915050565b6000813590506131b281614bbc565b92915050565b6000815190506131c781614bbc565b92915050565b600082601f8301126131e2576131e16144e4565b5b81356131f28482602086016130e0565b91505092915050565b60008151905061320a81614bd3565b92915050565b600082601f830112613225576132246144e4565b5b8135613235848260208601613122565b91505092915050565b60008135905061324d81614bea565b92915050565b60008135905061326281614c01565b92915050565b60006020828403121561327e5761327d6144f3565b5b600061328c84828501613164565b91505092915050565b600080604083850312156132ac576132ab6144f3565b5b60006132ba85828601613164565b92505060206132cb85828601613164565b9150509250929050565b6000806000606084860312156132ee576132ed6144f3565b5b60006132fc86828701613164565b935050602061330d86828701613164565b925050604061331e8682870161323e565b9150509250925092565b60008060008060808587031215613342576133416144f3565b5b600061335087828801613164565b945050602061336187828801613164565b93505060406133728782880161323e565b925050606085013567ffffffffffffffff811115613393576133926144ee565b5b61339f878288016131cd565b91505092959194509250565b600080604083850312156133c2576133c16144f3565b5b60006133d085828601613164565b92505060206133e185828601613179565b9150509250929050565b600080600080600060a08688031215613407576134066144f3565b5b600061341588828901613164565b955050602086013567ffffffffffffffff811115613436576134356144ee565b5b613442888289016131cd565b94505060406134538882890161318e565b93505060606134648882890161318e565b925050608061347588828901613253565b9150509295509295909350565b60008060408385031215613499576134986144f3565b5b60006134a785828601613164565b92505060206134b88582860161323e565b9150509250929050565b6000602082840312156134d8576134d76144f3565b5b60006134e6848285016131a3565b91505092915050565b600060208284031215613505576135046144f3565b5b6000613513848285016131b8565b91505092915050565b600060208284031215613532576135316144f3565b5b6000613540848285016131fb565b91505092915050565b60006020828403121561355f5761355e6144f3565b5b600082013567ffffffffffffffff81111561357d5761357c6144ee565b5b61358984828501613210565b91505092915050565b6000602082840312156135a8576135a76144f3565b5b60006135b68482850161323e565b91505092915050565b6135c8816141e0565b82525050565b6135d7816141ce565b82525050565b6135ee6135e9826141ce565b61436b565b82525050565b6135fd816141f2565b82525050565b61360c816141fe565b82525050565b61362361361e826141fe565b61437d565b82525050565b60006136348261406b565b61363e8185614081565b935061364e81856020860161428c565b613657816144f8565b840191505092915050565b600061366d8261406b565b6136778185614092565b935061368781856020860161428c565b80840191505092915050565b600061369e82614076565b6136a8818561409d565b93506136b881856020860161428c565b6136c1816144f8565b840191505092915050565b60006136d782614076565b6136e181856140ae565b93506136f181856020860161428c565b80840191505092915050565b600061370a600e8361409d565b915061371582614516565b602082019050919050565b600061372d602b8361409d565b91506137388261453f565b604082019050919050565b600061375060328361409d565b915061375b8261458e565b604082019050919050565b600061377360268361409d565b915061377e826145dd565b604082019050919050565b6000613796601c8361409d565b91506137a18261462c565b602082019050919050565b60006137b9601c8361409d565b91506137c482614655565b602082019050919050565b60006137dc6002836140ae565b91506137e78261467e565b600282019050919050565b60006137ff60248361409d565b915061380a826146a7565b604082019050919050565b600061382260198361409d565b915061382d826146f6565b602082019050919050565b6000613845602c8361409d565b91506138508261471f565b604082019050919050565b600061386860258361409d565b91506138738261476e565b604082019050919050565b600061388b60388361409d565b9150613896826147bd565b604082019050919050565b60006138ae602a8361409d565b91506138b98261480c565b604082019050919050565b60006138d160298361409d565b91506138dc8261485b565b604082019050919050565b60006138f460208361409d565b91506138ff826148aa565b602082019050919050565b6000613917602c8361409d565b9150613922826148d3565b604082019050919050565b600061393a60208361409d565b915061394582614922565b602082019050919050565b600061395d60298361409d565b91506139688261494b565b604082019050919050565b600061398060218361409d565b915061398b8261499a565b604082019050919050565b60006139a3602f8361409d565b91506139ae826149e9565b604082019050919050565b60006139c660218361409d565b91506139d182614a38565b604082019050919050565b60006139e960318361409d565b91506139f482614a87565b604082019050919050565b6000613a0c60088361409d565b9150613a1782614ad6565b602082019050919050565b6000613a2f601c8361409d565b9150613a3a82614aff565b602082019050919050565b6000613a52602c8361409d565b9150613a5d82614b28565b604082019050919050565b613a7181614266565b82525050565b613a8081614270565b82525050565b6000613a928284613662565b915081905092915050565b6000613aa98285613662565b9150613ab582846135dd565b6014820191508190509392505050565b6000613ad182856136cc565b9150613add82846136cc565b91508190509392505050565b6000613af4826137cf565b9150613b008285613612565b602082019150613b108284613612565b6020820191508190509392505050565b6000602082019050613b3560008301846135ce565b92915050565b6000606082019050613b5060008301866135ce565b613b5d60208301856135bf565b8181036040830152613b6f8184613629565b9050949350505050565b6000608082019050613b8e60008301876135ce565b613b9b60208301866135ce565b613ba86040830185613a68565b8181036060830152613bba8184613629565b905095945050505050565b6000602082019050613bda60008301846135f4565b92915050565b6000602082019050613bf56000830184613603565b92915050565b6000608082019050613c106000830187613603565b613c1d6020830186613a68565b613c2a60408301856135ce565b613c376060830184613603565b95945050505050565b6000608082019050613c556000830187613603565b613c626020830186613a77565b613c6f6040830185613603565b613c7c6060830184613603565b95945050505050565b60006020820190508181036000830152613c9f8184613629565b905092915050565b60006020820190508181036000830152613cc18184613693565b905092915050565b60006020820190508181036000830152613ce2816136fd565b9050919050565b60006020820190508181036000830152613d0281613720565b9050919050565b60006020820190508181036000830152613d2281613743565b9050919050565b60006020820190508181036000830152613d4281613766565b9050919050565b60006020820190508181036000830152613d6281613789565b9050919050565b60006020820190508181036000830152613d82816137ac565b9050919050565b60006020820190508181036000830152613da2816137f2565b9050919050565b60006020820190508181036000830152613dc281613815565b9050919050565b60006020820190508181036000830152613de281613838565b9050919050565b60006020820190508181036000830152613e028161385b565b9050919050565b60006020820190508181036000830152613e228161387e565b9050919050565b60006020820190508181036000830152613e42816138a1565b9050919050565b60006020820190508181036000830152613e62816138c4565b9050919050565b60006020820190508181036000830152613e82816138e7565b9050919050565b60006020820190508181036000830152613ea28161390a565b9050919050565b60006020820190508181036000830152613ec28161392d565b9050919050565b60006020820190508181036000830152613ee281613950565b9050919050565b60006020820190508181036000830152613f0281613973565b9050919050565b60006020820190508181036000830152613f2281613996565b9050919050565b60006020820190508181036000830152613f42816139b9565b9050919050565b60006020820190508181036000830152613f62816139dc565b9050919050565b60006020820190508181036000830152613f82816139ff565b9050919050565b60006020820190508181036000830152613fa281613a22565b9050919050565b60006020820190508181036000830152613fc281613a45565b9050919050565b6000602082019050613fde6000830184613a68565b92915050565b6000613fee613fff565b9050613ffa82826142f1565b919050565b6000604051905090565b600067ffffffffffffffff821115614024576140236144b5565b5b61402d826144f8565b9050602081019050919050565b600067ffffffffffffffff821115614055576140546144b5565b5b61405e826144f8565b9050602081019050919050565b600081519050919050565b600081519050919050565b600082825260208201905092915050565b600081905092915050565b600082825260208201905092915050565b600081905092915050565b60006140c482614266565b91506140cf83614266565b9250827fffffffffffffffffffffffffffffffffffffffffffffffffffffffffffffffff03821115614104576141036143ca565b5b828201905092915050565b600061411a82614266565b915061412583614266565b925082614135576141346143f9565b5b828204905092915050565b600061414b82614266565b915061415683614266565b9250817fffffffffffffffffffffffffffffffffffffffffffffffffffffffffffffffff048311821515161561418f5761418e6143ca565b5b828202905092915050565b60006141a582614266565b91506141b083614266565b9250828210156141c3576141c26143ca565b5b828203905092915050565b60006141d982614246565b9050919050565b60006141eb82614246565b9050919050565b60008115159050919050565b6000819050919050565b60007fffffffff0000000000000000000000000000000000000000000000000000000082169050919050565b600061423f826141ce565b9050919050565b600073ffffffffffffffffffffffffffffffffffffffff82169050919050565b6000819050919050565b600060ff82169050919050565b82818337600083830152505050565b60005b838110156142aa57808201518184015260208101905061428f565b838111156142b9576000848401525b50505050565b600060028204905060018216806142d757607f821691505b602082108114156142eb576142ea614428565b5b50919050565b6142fa826144f8565b810181811067ffffffffffffffff82111715614319576143186144b5565b5b80604052505050565b600061432d82614266565b91507fffffffffffffffffffffffffffffffffffffffffffffffffffffffffffffffff8214156143605761435f6143ca565b5b600182019050919050565b600061437682614387565b9050919050565b6000819050919050565b600061439282614509565b9050919050565b60006143a482614266565b91506143af83614266565b9250826143bf576143be6143f9565b5b828206905092915050565b7f4e487b7100000000000000000000000000000000000000000000000000000000600052601160045260246000fd5b7f4e487b7100000000000000000000000000000000000000000000000000000000600052601260045260246000fd5b7f4e487b7100000000000000000000000000000000000000000000000000000000600052602260045260246000fd5b7f4e487b7100000000000000000000000000000000000000000000000000000000600052603160045260246000fd5b7f4e487b7100000000000000000000000000000000000000000000000000000000600052603260045260246000fd5b7f4e487b7100000000000000000000000000000000000000000000000000000000600052604160045260246000fd5b600080fd5b600080fd5b600080fd5b600080fd5b6000601f19601f8301169050919050565b60008160601b9050919050565b7f416c726561647920626f75676874000000000000000000000000000000000000600082015250565b7f455243373231456e756d657261626c653a206f776e657220696e646578206f7560008201527f74206f6620626f756e6473000000000000000000000000000000000000000000602082015250565b7f4552433732313a207472616e7366657220746f206e6f6e20455243373231526560008201527f63656976657220696d706c656d656e7465720000000000000000000000000000602082015250565b7f4f776e61626c653a206e6577206f776e657220697320746865207a65726f206160008201527f6464726573730000000000000000000000000000000000000000000000000000602082015250565b7f46756e6374696f6e2063616c6c206e6f74207375636365737366756c00000000600082015250565b7f4552433732313a20746f6b656e20616c7265616479206d696e74656400000000600082015250565b7f1901000000000000000000000000000000000000000000000000000000000000600082015250565b7f4552433732313a207472616e7366657220746f20746865207a65726f2061646460008201527f7265737300000000000000000000000000000000000000000000000000000000602082015250565b7f4552433732313a20617070726f766520746f2063616c6c657200000000000000600082015250565b7f4552433732313a206f70657261746f7220717565727920666f72206e6f6e657860008201527f697374656e7420746f6b656e0000000000000000000000000000000000000000602082015250565b7f4e61746976654d6574615472616e73616374696f6e3a20494e56414c49445f5360008201527f49474e4552000000000000000000000000000000000000000000000000000000602082015250565b7f4552433732313a20617070726f76652063616c6c6572206973206e6f74206f7760008201527f6e6572206e6f7220617070726f76656420666f7220616c6c0000000000000000602082015250565b7f4552433732313a2062616c616e636520717565727920666f7220746865207a6560008201527f726f206164647265737300000000000000000000000000000000000000000000602082015250565b7f4552433732313a206f776e657220717565727920666f72206e6f6e657869737460008201527f656e7420746f6b656e0000000000000000000000000000000000000000000000602082015250565b7f4552433732313a206d696e7420746f20746865207a65726f2061646472657373600082015250565b7f4552433732313a20617070726f76656420717565727920666f72206e6f6e657860008201527f697374656e7420746f6b656e0000000000000000000000000000000000000000602082015250565b7f4f776e61626c653a2063616c6c6572206973206e6f7420746865206f776e6572600082015250565b7f4552433732313a207472616e73666572206f6620746f6b656e2074686174206960008201527f73206e6f74206f776e0000000000000000000000000000000000000000000000602082015250565b7f5369676e657220616e64207369676e617475726520646f206e6f74206d61746360008201527f6800000000000000000000000000000000000000000000000000000000000000602082015250565b7f4552433732314d657461646174613a2055524920717565727920666f72206e6f60008201527f6e6578697374656e7420746f6b656e0000000000000000000000000000000000602082015250565b7f4552433732313a20617070726f76616c20746f2063757272656e74206f776e6560008201527f7200000000000000000000000000000000000000000000000000000000000000602082015250565b7f4552433732313a207472616e736665722063616c6c6572206973206e6f74206f60008201527f776e6572206e6f7220617070726f766564000000000000000000000000000000602082015250565b7f536f6c64206f7574000000000000000000000000000000000000000000000000600082015250565b7f496e73756666696369656e7420507572636861736520416d6f756e7400000000600082015250565b7f455243373231456e756d657261626c653a20676c6f62616c20696e646578206f60008201527f7574206f6620626f756e64730000000000000000000000000000000000000000602082015250565b614b80816141ce565b8114614b8b57600080fd5b50565b614b97816141f2565b8114614ba257600080fd5b50565b614bae816141fe565b8114614bb957600080fd5b50565b614bc581614208565b8114614bd057600080fd5b50565b614bdc81614234565b8114614be757600080fd5b50565b614bf381614266565b8114614bfe57600080fd5b50565b614c0a81614270565b8114614c1557600080fd5b5056fe4d6574615472616e73616374696f6e2875696e74323536206e6f6e63652c616464726573732066726f6d2c62797465732066756e6374696f6e5369676e617475726529a2646970667358221220396b30524b83a2f7ea5bcd84beabe7ed3f45c5bdfc3998f494f2065d496a954964736f6c63430008050033454950373132446f6d61696e28737472696e67206e616d652c737472696e672076657273696f6e2c6164647265737320766572696679696e67436f6e74726163742c627974657333322073616c7429",
  "linkReferences": {},
  "deployedLinkReferences": {}
}